:100000000C944C000C94CF010C94CF010C94CF01B4
:100010000C94CF010C94CF010C94CF010C94CF0120
:100020000C94CF010C94CF010C94CF010C94CF0110
:100030000C94CF010C94CF010C94CF010C94CF0100
:100040000C942E010C94CF010C94CF010C94CF0191
:100050000C94CF010C94CF010C94CF010C94CF01E0
:100060000C94CF010C94CF010C94CF010C94CF01D0
:100070000C94CF010C94CF010C94CF010C94CF01C0
:100080000C94CF010C94CF010C94CF010100010B13
:100090000003A2010B010F8011241FBECFEFD0E19E
:1000A000DEBFCDBFECE8F0E040E019C0B791A7910A
:1000B00037912791079107FD0EC097918791EF0126
:1000C000F92FE82F0BBF07900D92A217B307D9F7AE
:1000D000FE011BBE04C01D92A217B307E1F7E83969
:1000E000F40721F70E94BB010C947600F894FFCF2F
:1000F000EF92FF920F931F93CF93DF938C019C019C
:10010000ADECBCEC0E94AC01AC0156954795569500
:10011000479556954795CA01880F991F440F551F5B
:10012000440F551F440F551F480F591FC801841B0A
:10013000950BAC010E94AC01EC01D695C795D69504
:10014000C795D695C7959E010E94AC01FC01F69516
:10015000E795F695E795F695E795CF01880F991FF6
:10016000EE0FFF1FEE0FFF1FEE0FFF1FE80FF91F2F
:10017000CE018E1B9F0BFC01980136952795369575
:100180002795ABE7B4E10E94AC017C01F694E794BB
:100190009701ADECBCEC0E94AC01EC01D695C79583
:1001A000D695C795D695C795CE01880F991FCC0FC8
:1001B000DD1FCC0FDD1FCC0FDD1FC80FD91FC701FE
:1001C0008C1B9D0BEC01980136952795369527954C
:1001D00036952795A5ECB0E20E94AC0192958295E8
:1001E0008F7089279F70892718BA21E028BBDC010E
:1001F000A050BF4F8C918BBB8FEC97E00197F1F72C
:1002000000C0000082E088BBC050DF4F88818BBBFC
:100210008FEC97E00197F1F700C0000084E088BB05
:10022000E050FF4F80818BBB8FEC97E00197F1F797
:1002300000C0000088E088BBFA01E050FF4F8081D9
:100240008BBB8FEC97E00197F1F700C00000DF91C6
:0C025000CF911F910F91FF90EF90089547
:10025C001F920F920FB60F9211240BB60F922F9381
:10026C003F934F935F936F937F938F939F93AF9332
:10027C00BF93EF93FF9312BE80910D0190910E01ED
:10028C00019690930E0180930D01893E93409CF052
:10029C0080910B0190910C01019660E177E20E9434
:1002AC00740190930C0180930B0110920E0110922B
:1002BC000D010E949C01FF91EF91BF91AF919F9115
:1002CC008F917F916F915F914F913F912F910F90F3
:0C02DC000BBE0F900FBE0F901F901895E6
:1002E80097FB072E16F4009407D077FD09D00E94DB
:1002F800880107FC05D03EF4909581959F4F08959D
:08030800709561957F4F089587
:10031000AA1BBB1B51E107C0AA1FBB1FA617B7072B
:1003200010F0A61BB70B881F991F5A95A9F7809547
:080330009095BC01CD01089578
:1003380018BA81E088BB80910A018BBB92E098BB18
:100348008BBB94E098BB8BBB98E098BB8BBB0895A4
:10035800A29FB001B39FC001A39F700D811D1124FE
:0E036800911DB29F700D811D1124911D0895ED
:100376008FEF87BB8ABB8BBB18BA0E94C9018091DD
:0C0386000B0190910C010E947800F9CF4F
:0C03920081E083BF87BF12BE78940895FD
:04039E000C940000BB
:0B03A200C0F9A4B0999282F88090FF8F
:00000001FF
