:100000000C944C000C9430010C9430010C94300191
:100010000C9430010C9430010C9430010C9430019C
:100020000C9430010C9430010C9430010C9430018C
:100030000C9430010C9430010C9430010C9430017C
:100040000C9478000C9430010C9430010C94300125
:100050000C9430010C9430010C9430010C9430015C
:100060000C9430010C9430010C9430010C9430014C
:100070000C9430010C9430010C9430010C9430013C
:100080000C9430010C9430010C94300101000107F4
:10009000800107010800026411241FBECFEFD0E1E8
:1000A000DEBFCDBFECE8F0E040E019C0B791A7910A
:1000B00037912791079107FD0EC097918791EF0126
:1000C000F92FE82F0BBF07900D92A217B307D9F7AE
:1000D000FE011BBE04C01D92A217B307E1F7E83969
:1000E000F40721F70E9427010C947600F894FFCFC3
:1000F0001F920F920FB60F9211240BB60F922F93EF
:100100003F934F935F936F937F938F939F93AF939F
:10011000BF93EF93FF9380910501909106018E317B
:10012000910534F4019690930601809305016FC008
:100130008091030190910401892BD9F580910101EF
:100140009091020183309105A4F443E050E0481BF4
:10015000590B2091070130E002C0359527954A954B
:10016000E2F7209300010196909302018093010130
:1001700020C0883091058CF4AC0143505109209186
:10018000070101C0220F4A95EAF72093000101966A
:1001900090930201809301010CC081E090E0909364
:1001A00004018093030187E090E090930201809323
:1001B00001018091030190910401019701F5809163
:1001C000010190910201181619068CF4809100012A
:1001D0008695809300010E942101809101019091F8
:1001E00002010197909302018093010108C01092CF
:1001F00004011092030110920201109201018091FA
:1002000000010E9421011092060110920501FF9148
:10021000EF91BF91AF919F918F917F916F915F917E
:100220004F913F912F910F900BBE0F900FBE0F90EB
:040230001F9018956E
:0E02340083E083BF87B7816087BF7894089509
:0C024200982F9295907F98BB82BB089586
:0A024E000E942C010E941A01FFCF4C
:0802580080EF87BB81BB089514
:040260000C940000FA
:010264000F8A
:00000001FF
