:100000000C944C000C9454010C9454010C94540125
:100010000C9454010C9454010C9454010C9454010C
:100020000C9454010C9454010C9454010C945401FC
:100030000C9454010C9454010C9454010C945401EC
:100040000C94B9000C9454010C9454010C94540178
:100050000C9454010C9454010C9454010C945401CC
:100060000C9454010C9454010C9454010C945401BC
:100070000C9454010C9454010C9454010C945401AC
:100080000C9454010C9454010C9454010100010A85
:100090000002AC010A010E8011241FBECFEFD0E197
:1000A000DEBFCDBFECE8F0E040E019C0B791A7910A
:1000B00037912791079107FD0EC097918791EF0126
:1000C000F92FE82F0BBF07900D92A217B307D9F7AE
:1000D000FE011BBE04C01D92A217B307E1F7E83969
:1000E000F40721F70E942F010C947600F894FFCFBB
:1000F000FC019C01ADECBCEC0E943F01AC015695AB
:1001000047955695479556954795CA01880F991F6B
:10011000440F551F440F551F440F551F480F591FBB
:10012000CF01841B950BAC010E943F0196958795EA
:10013000969587959695879518BA21E028BBFC017E
:10014000E050FF4F80818BBB8FEC97E00197F1F778
:1001500000C0000018BA82E088BBFA01E050FF4FEF
:1001600080818BBB8FEC97E00197F1F700C0000016
:020170000895F0
:100172001F920F920FB60F9211242F935F936F93DA
:100182007F938F939F93AF93BF9312BE80910C0185
:1001920090910D01019690930D0180930C01893E7F
:1001A20093408CF080910A0190910B01019664E6D4
:1001B20070E00E94070190930B0180930A01109254
:1001C2000D0110920C01BF91AF919F918F917F9180
:1001D2006F915F912F910F900FBE0F901F90189506
:1001E20018BA81E088BB8FEF8BBBEFECF7E0319759
:1001F200F1F700C0000018BA92E098BB8BBB8FECFD
:0C02020097E00197F1F700C0000008959C
:10020E0097FB072E16F4009407D077FD09D00E94B5
:10021E001B0107FC05D03EF4909581959F4F0895E4
:08022E00709561957F4F089562
:10023600AA1BBB1B51E107C0AA1FBB1FA617B70706
:1002460010F0A61BB70B881F991F5A95A9F7809522
:080256009095BC01CD01089553
:10025E008FEF87BB8ABB8BBB18BA0E944E010E94E0
:10026E00F10080910A0190910B010E947800F7CF66
:10027E00A29FB001B39FC001A39F700D811D1124D9
:0E028E00911DB29F700D811D1124911D0895C8
:0C029C0081E083BF87BF12BE78940895F4
:0402A8000C940000B2
:0A02AC00C0F9A4B0999282F8809086
:00000001FF
