:100000000C944A000C948F000C948F000C948F0079
:100010000C948F000C948F000C948F000C948F0024
:100020000C948F000C948F000C948F000C948F0014
:100030000C948F000C948F000C948F000C948F0004
:100040000C948F000C948F000C948F000C948F00F4
:100050000C948F000C948F000C948F000C948F00E4
:100060000C948F000C948F000C948F000C948F00D4
:100070000C948F000C948F000C948F000C948F00C4
:100080000C948F000C948F000C948F000100010AD7
:100090000001220011241FBECFEFD0E1DEBFCDBF93
:1000A000ECE8F0E040E019C0B791A79137912791B3
:1000B000079107FD0EC097918791EF01F92FE82F67
:1000C0000BBF07900D92A217B307D9F7FE011BBE15
:1000D00004C01D92A217B307E1F7E339F40721F733
:0C00E0000E9476000C947400F894FFCF8E
:1000EC008FEF81BB82BB80E090E00FC0FC01E05041
:1000FC00FF4F208122BB2FEF30E742E021503040F0
:10010C004040E1F700C0000001968A30910574F37D
:02011C00EACF28
:04011E000C9400003D
:0A012200C0F9A4B0999282F8809011
:00000001FF
