:100000000C944C000C9408020C9408020C94080206
:100010000C9408020C9408020C9408020C94080238
:100020000C9408020C9408020C9408020C94080228
:100030000C9408020C9408020C9408020C94080218
:100040000C9437010C9408020C9408020C940802DA
:100050000C9408020C9408020C9408020C940802F8
:100060000C9408020C9408020C9408020C940802E8
:100070000C9408020C9408020C9408020C940802D8
:100080000C9408020C9408020C9408020100010B65
:10009000000414010B010F8011241FBECFEFD0E12B
:1000A000DEBFCDBFECE8F0E040E019C0B791A7910A
:1000B00037912791079107FD0EC097918791EF0126
:1000C000F92FE82F0BBF07900D92A217B307D9F7AE
:1000D000FE011BBE04C01D92A217B307E1F7E83969
:1000E000F40721F70E94F4010C947600F894FFCFF6
:1000F000EF92FF920F931F93CF93DF93AC019C017C
:10010000ADECBCEC0E94E501EC01D695C795D69507
:10011000C795D695C795CE01880F991FCC0FDD1FC7
:10012000CC0FDD1FCC0FDD1FC80FD91FCA018C1BE0
:100130009D0BEC010E94E501FC01F695E795F69513
:10014000E795F695E7959F010E94E5018C011695CC
:1001500007951695079516950795C801880F991F5D
:10016000000F111F000F111F000F111F080F191F83
:10017000CF01801B910B8C019A01369527953695FE
:100180002795ABE7B4E10E94E501FC01F695E79500
:100190009F01ADECBCEC0E94E5017C01F694E79474
:1001A000F694E794F694E794C701880F991FEE0C34
:1001B000FF1CEE0CFF1CEE0CFF1CE80EF91ECF011D
:1001C0008E199F097C019A013695279536952795BA
:1001D00036952795A5ECB0E20E94E50192958295AF
:1001E0008F7089279F70892718BA21E028BBFC01EE
:1001F000E050FF4F808190E00E947D018FEC97E0FE
:100200000197F1F700C0000082E088BBF701E050E1
:10021000FF4F808190E00E947D018FEC97E0019775
:10022000F1F700C0000084E088BBF801E050FF4F08
:10023000808190E00E947D018FEC97E00197F1F7BB
:1002400000C0000088E088BBC050DF4F888190E08C
:100250000E947D018FEC97E00197F1F700C000004C
:0E026000DF91CF911F910F91FF90EF900895C5
:10026E001F920F920FB60F9211240BB60F922F936F
:10027E003F934F935F936F937F938F939F93AF9320
:10028E00BF93EF93FF9312BE80910D0190910E01DB
:10029E00019690930E0180930D01893E93409CF040
:1002AE0080910B0190910C01019660E177E20E9422
:1002BE00BD0190930C0180930B0110920E011092D0
:1002CE000D010E949D01FF91EF91BF91AF919F9102
:1002DE008F917F916F915F914F913F912F910F90E1
:0C02EE000BBE0F900FBE0F901F901895D4
:1002FA001BBA20E030E012C0882324F49BB391603B
:10030A009BBB03C09BB39E7F9BBB9BB392609BBB73
:10031A009BB39D7F9BBB880F2F5F3F4F28303105D2
:10032A005CF38BB384608BBB8BB38B7F8BBB0895E1
:10033A00CF93DF9318BA81E088BBC0E0D1E08A8509
:10034A0090E00E947D0182E088BB8A8590E00E944D
:10035A007D0184E088BB8A8590E00E947D0188E067
:10036A0088BB8A8590E00E947D01DF91CF91089534
:10037A0097FB072E16F4009407D077FD09D00E9448
:10038A00D10107FC05D03EF4909581959F4F0895C1
:08039A00709561957F4F0895F5
:1003A200AA1BBB1B51E107C0AA1FBB1FA617B70799
:1003B20010F0A61BB70B881F991F5A95A9F78095B5
:0803C2009095BC01CD010895E6
:1003CA00A29FB001B39FC001A39F700D811D11248C
:0E03DA00911DB29F700D811D1124911D08957B
:1003E8008FEF87BB8ABB8BBB18BA0E940202809131
:0C03F8000B0190910C010E947800F9CFDD
:0C04040081E083BF87BF12BE789408958A
:040410000C94000048
:0B041400C0F9A4B0999282F88090FF1C
:00000001FF
